:040000000CEF00F011
:10000800FACF25F0FBCF26F0E9CF27F0F7ED0FF078
:0400180018EF12F0DB
:1008000000C30809083D086B0834034D0069006304
:100810000072006F006300680069007000200054DF
:10082000006500630068006E006F006C006F006779
:10083000007900200049006E0063002E002E035353
:100840000069006D0070006C0065002000480049E0
:1008500000440020004400650076006900630065E4
:10086000002000440065006D006F000902290001AE
:100870000100C03209040000020300000009211138
:10088000010001221D000705810340000107050149
:10089000034000010600FF0901A1011901294015CB
:1008A0000026FF007508954081001901294091003C
:1008B000C01201000200000008D8043F000001013E
:1008C000020001040309040004012205D8A411D088
:1008D000040120511F0B0009D8A40BD000017C8F0C
:1008E00004012151030AD8A402D0010E01D0000E48
:1008F000406E0401226744D1040120511F0B020AFB
:10090000D8A43ED1040124510F0B0009D8B438D12A
:10091000040124510F0B176E020E175CD8B030D1B2
:1009200000017851200AD8A42BD100017C8F04014A
:1009300024BF1FD0040124510F0B176E1750020D56
:1009400000016C0EF324D96E0001000EF420DA6E63
:10095000DECF1DF0DDCF1EF0040124510F0B176E0A
:100960001750010D0001760EF324D96E0001000E20
:100970001ED0040124510F0B176E1750020D0001F9
:10098000680EF324D96E0001000EF420DA6EDECF7B
:100990001DF0DDCF1EF0040124510F0B176E175010
:1009A000010D0001740EF324D96E0001000EF42035
:1009B000DA6EDF501C6E1CB002D01D9401D01D8475
:1009C000040124BF0DD0040124510F0B176E1750E2
:1009D000020D00016C0EF324D96E0001000E0CD044
:1009E000040124510F0B176E1750020D0001680E01
:1009F000F324D96E0001000EF420DA6E1DC0DEFF74
:100A00001EC0DDFF04012151030AD8A433D01DC04C
:100A1000D9FF1EC0DAFFDFAE20D0040124BF0DD005
:100A2000040124510F0B176E1750010D0001760EB3
:100A3000F324D96E0001000E0CD0040124510F0BD9
:100A4000176E1750010D0001740EF324D96E0001CA
:100A5000000EF420DA6E0001DF821DC0D9FF1EC037
:100A6000DAFF000EDB841DC0D9FF1EC0DAFF000EC6
:100A7000DB8E86D0040E1D1A1DC0D9FF1EC0DAFF02
:100A8000DFAE1BD01DC0D9FF1EC0DAFF7F0EDF1600
:100A90001DC0D9FF1EC0DAFF000EDB8C000E106EE9
:100AA000050E0F6E1EC012F01DC011F0000E146E68
:100AB000020E136EBEEC0FF006D01DC0D9FF1EC093
:100AC000DAFF000EDB8C040E1D1A1CB206D01DC00E
:100AD000D9FF1EC0DAFFDFAE35D0040124BF0DD030
:100AE000040124510F0B176E1750010D0001760EF3
:100AF000F324D96E0001000E0CD0040124510F0B19
:100B0000176E1750010D0001740EF324D96E000109
:100B1000000EF420DA6E0001DF921DC0D9FF1EC066
:100B2000DAFF3B0EDF16000E106E050E0F6E1EC0B4
:100B300012F01DC011F0000E146E020E136EBEEC0A
:100B40000FF006D01DC0D9FF1EC0DAFF3B0EDF1626
:100B5000040124510F0B176E1750010D700E186E03
:100B60000F0E196EF3501826F450192218C01AF0FF
:100B700019C01BF01AC0D9FF1BC0DAFFFE0EDF162A
:100B80001200000173517211D8B413D072C0D9FF92
:100B900073C0DAFFDFAE04D00001866B862B02D073
:100BA0000001866B000186510001896F00018A6B8C
:100BB00006D0000E00018A6F000E0001896F00014F
:100BC0008A518911D8B49CD0BDD0020EE8EC10F047
:100BD000A2D0000171517011D8B413D070C0D9FFE8
:100BE00071C0DAFFDFAE04D00001866B862B02D025
:100BF0000001866B0001865100018B6F00018C6B38
:100C000006D0000E00018C6F000E00018B6F0001FA
:100C10008C518B11D8A47FD0810E0501406F010E3D
:100C2000C2EC11F00009D8A402D0010E01D0000ED0
:100C30000501416F010E00017F6F0501050E0001E6
:100C4000816F0501400E0001806F400E0001826F30
:100C5000010E55EC0AF04DD0000171517011D8B45D
:100C600013D070C0D9FF71C0DAFFDFAE04D000012D
:100C7000866B862B02D00001866B00018651000135
:100C80008D6F00018E6B06D0000E00018E6F000E7E
:100C900000018D6F00018E518D11D8A43CD0000E43
:100CA0002DEC10F000017FC08FF0000180C090F0AB
:100CB000370E0501406F8FC041F5000190C086F0EE
:100CC00086C087F00001886B000187510501426FE3
:100CD000010E00017F6F0501050E0001816F050106
:100CE000400E0001806F400E0001826F010E55EC36
:100CF0000AF000017FC070F0000180C071F00BD0DD
:100D000005010051370AD8B4A7D7B70AD8B45DD7C0
:100D1000010AD8B45ED7000E00017F6F0501050EF1
:100D20000001816F0501000E0001806F400E00017F
:100D3000826F010E55EC0AF000017FC072F00001D5
:100D400080C073F01200A09A000E6A6E000E686EEA
:100D5000000E706E0F0E0001806F710E00017F6F2C
:100D6000000E0001826F000E0001816F000E000175
:100D7000846F010E0001836F22EC11F0160E6F6E6E
:100D80009F0E6B6E7B0E696E000E0001876F11D097
:100D900000018751040D0401000EF324D96E0401F3
:100DA000040EF420DA6EDE6ADE6ADE6ADD6A0001B5
:100DB000872B070E00018765EBD76D8C000E6E6EDA
:100DC0006D986D9C6896000E00017C6F000E00010E
:100DD000636F000E0001656F000E0001646F68B65E
:100DE000F1D7010E456E010E466E000E426E000EEA
:100DF000436E000E416E000E0001876F3AD0000175
:100E00008751020D0001680EF324D96E0001000E17
:100E1000F420DA6E000EDE6E000EDD6E00018751EA
:100E2000020D00016C0EF324D96E0001000EF420B7
:100E3000DA6E000EDE6E000EDD6E00018751010DD0
:100E40000001740EF324D96E0001000EF420DA6E56
:100E5000000EDF6E00018751010D0001760EF324B4
:100E6000D96E0001000EF420DA6E000EDF6E000174
:100E7000872B010E00018765C2D70401040E000113
:100E8000696F0401080E0001686F160E706E040E83
:100E90000401036F200E0401026F080E0401016FAC
:100EA000040E0401006F0401008F000E4C6E000E52
:100EB000336E000E346E000E356E000E366E000E70
:100EC000486E000E0001786F1200A09A000E6A6E44
:100ED000000E686E000E706E0F0E026E710E016EC7
:100EE000000E046E000E036E000E066E010E056EFF
:100EF000EFEC11F0160E6F6E9F0E6B6E7B0E696E2F
:100F0000000E096E0FD00950040D0401000EF324E9
:100F1000D96E0401040EF420DA6EDE6ADE6ADE6A3F
:100F2000DD6A092A070E0964EED76D8C000E6E6E1D
:100F30006D986D9C6896000E00017C6F000E00019C
:100F4000636F000E0001656F000E0001646F68B6EC
:100F5000F1D7010E456E010E466E000E426E000E78
:100F6000436E000E416E000E096E35D00950020D21
:100F70000001680EF324D96E0001000EF420DA6E31
:100F8000000EDE6E000EDD6E0950020D00016C0ECB
:100F9000F324D96E0001000EF420DA6E000EDE6E2E
:100FA000000EDD6E0950010D0001740EF324D96EA0
:100FB0000001000EF420DA6E000EDF6E0950010D04
:100FC0000001760EF324D96E0001000EF420DA6ED3
:100FD000000EDF6E092A010E0964C8D70401040E51
:100FE0000001696F0401080E0001686F160E706E33
:100FF000040E0401036F200E0401026F080E0401A9
:10100000016F040E0401006F0401008F000E4C6E8E
:10101000000E336E000E346E000E356E000E366E0E
:10102000000E486E000E0001786F1200040120517E
:10103000800AD8A499D0C00E00017C6F89D0080E18
:1010400000017A6FB10E0001796F000E00017E6F12
:10105000120E00017D6F88D00401226775D0040153
:101060002251020D070EF324F66E080EF420F76EDF
:1010700009000001F5CF79F00A000001F5CF7AF000
:10108000020E00017925016E000E00017A21026E28
:1010900001C0F6FF02C0F7FFF86A070EF76403D03D
:1010A0000800F55005D0F6CFE9FFF7CFEAFFEF5083
:1010B00000017D6F030E00017925016E000E000115
:1010C0007A21026E01C0F6FF02C0F7FFF86A070E30
:1010D000F76403D00800F55005D0F6CFE9FFF7CF4D
:1010E000EAFFEF5000017E6F3FD0030E0401225D46
:1010F000D8B02AD004012251020D010EF324F66E5D
:10110000080EF420F76E09000001F5CF79F00A000F
:101110000001F5CF7AF0000179C0F6FF00017AC036
:10112000F7FFF86A070EF76403D00800F55005D002
:10113000F6CFE9FFF7CFEAFFEF50016E0150000153
:101140007D6F00017E6B10D0000E00017C6F0CD013
:1011500004012351010AD8B472D7030AD8B47CD74A
:10116000010AD8B4C2D7F0D7120000017805D8B46C
:101170006DBA07D0000E686E69806988020E0001A2
:10118000786F68B469A403D06894A9EC11F06DB2CB
:1011900083D068B069A007D065EC07F0A08A040E80
:1011A0000001786F689068B869A802D0D9EC11F096
:1011B00068AC1AD069AC0ED0000E106E730E0F6EB4
:1011C000000E126E000E116E000E146E010E136EE4
:1011D000BEEC0FF0689C48EC12F04750D8A44706CC
:1011E000476602D0E0EC0DF068BA69AA02D0ACEC18
:1011F00010F068B269A20FD07F0E106E0F68000E5B
:10120000126E000E116E000E146E010E136EBEEC07
:101210000FF0000E6A6E040E0001785DD8B069A66A
:101220003BD0000E246E35D068A636D06CCF4EF081
:101230004E30E832E8320F0B4A6E68964EB409D051
:101240004A50010D0001760EF324D96E0001000E04
:1012500008D04A50010D0001740EF324D96E00012C
:10126000000EF420DA6E0001DF704A6603D0AAECAB
:101270000CF00ED0000E106E720E0F6E000E126E7D
:101280004E0E116E000E146E000E136EBEEC0FF0BB
:10129000242A030E2464C8D7A19A120020EE01F07C
:1012A0003950D9263A50DA22DF50026E025000013E
:1012B000645D000E00016559D8A064C002F00250C0
:1012C0000001645F000E0001655B000E016E14D02A
:1012D0000150010D0401280EF324D96E0401040EFF
:1012E000F420DA6E60C0E1FF61C0E2FFDFCFE7FF0C
:1012F0000001604B612B012A0250015CD8A0E8D7A5
:10130000000165516411D8B42BD020EE01F03B50A0
:10131000D9263C50DA22080EDF6E20EE02F03B5058
:10132000D9263C50DA22280EDE6E040EDD6E39C05E
:10133000D9FF3AC0DAFFDFBC06D03BC0D9FF3CC0C2
:10134000DAFF480E05D03BC0D9FF3CC0DAFF080EDB
:10135000DF6E3BC0D9FF3CC0DAFF000EDB8E24D02D
:1013600020EE01F03B50D9263C50DA22080EDF6E09
:1013700020EE02F03B50D9263C50DA22200EDE6EE1
:10138000040EDD6E3BC0D9FF3CC0DAFF040EDF6EF9
:101390003BC0D9FF3CC0DAFF000EDB8E0001639F2B
:1013A000446602D0E0EC0DF01200040120511F0B46
:1013B000016E0104D8A478D004012451D8A474D0BB
:1013C00004012151060AD8B41FD027D04C04D8A458
:1013D00024D0080E00017A6F7D0E0001796F000E97
:1013E00000017E6F090E0AD0080E00017A6F940E7C
:1013F0000001796F000E00017E6F1D0E00017D6FF0
:10140000C00E00017C6F09D004012351210AD8B419
:10141000DDD7030AD8B4E8D7010A04012039E8323D
:10142000030B016E0104D8A43FD02AD0000E0001A6
:101430007A6F500E0001796F000E00017E6F010E71
:1014400000017D6FC10E13D0800E00017C6F23C49C
:1014500050F02AD0000E00017A6F4F0E0001796F14
:10146000000E00017E6F010E00017D6F810E0001F4
:101470007C6F1AD0800E00017C6F22C44FF014D014
:1014800004012151010AD8B40FD0030AD8B4CED731
:10149000010AD8B4DFD70A0AD8B406D0030AD8B4F0
:1014A000D3D7010AD8B4E6D712000001836F000138
:1014B0007F51D8B40AD000018351020D0001680E9B
:1014C000F324D96E0001000E09D000018351020DF2
:1014D00000016C0EF324D96E0001000EF420DA6EC8
:1014E0000001DECF84F00001DDCF85F000018551E1
:1014F0008411D8A407D0000E0001806F000E0001F7
:101500007F6F4ED0000120EE02F000018451D926F9
:1015100000018551DA22000180C0DEFF000181C098
:10152000DDFF000120EE01F000018451D926000109
:101530008551DA22000182C0DFFF84C0D9FF85C057
:10154000DAFF400EDF1684C0D9FF85C0DAFF000E37
:10155000DB8684C0D9FF85C0DAFF000EDB8E000178
:101560007F51D8B40AD000018351020D0001680EEA
:10157000F324D96E0001000E09D000018351020D41
:1015800000016C0EF324D96E0001000EF420DA6E17
:10159000040EDF1A000185C080F0000184C07FF0D6
:1015A000120000017C8F0F0E026E710E016E000E94
:1015B000046E000E036E000E066E010E056EEFEC5B
:1015C00011F00401040E026E0401000E016E000E03
:1015D000046E000E036E000E066E200E056EEFEC1C
:1015E00011F06D8C000E176E19D01750010D00010F
:1015F000740EF324D96E0001000EF420DA6E000E92
:10160000DF6E1750010D0001760EF324D96E000134
:10161000000EF420DA6E000EDF6E172A010E17643A
:10162000E4D7000E026E4D0E016E000E046E000E29
:10163000036E000E066E010E056EEFEC11F06D9C50
:101640000401040E0001696F0401080E0001686FB7
:101650000401040E3A6E0401000E396E3AC03CF0EB
:1016600039C03BF022C44CF04C6602D0100E0FD0B3
:10167000000E106E010E0F6E000E126E4C0E116EEB
:10168000000E146E010E136EBEEC0FF0200E000162
:10169000786F12006D9800017CBF39D0000163AFF4
:1016A0000BD0020E496E436602D097EC0EF0000E8E
:1016B000466E000E456E65D020EE01F03B50D926F7
:1016C0003C50DA22080EDF6E20EE02F03B50D926A5
:1016D0003C50DA22200EDE6E040EDD6E3BC0D9FFD8
:1016E0003CC0DAFF0C0EDF6E3BC0D9FF3CC0DAFF16
:1016F000000EDB8E68C0D9FF69C0DAFF040EDF6E12
:1017000068C0D9FF69C0DAFF000EDB8E3AD0040151
:1017100020AF0FD0010E496E426602D097EC0EF05A
:10172000000E466E000E456E44662BD0E0EC0DF0C8
:1017300028D0020E496E20EE01F03B50D9263C50D5
:10174000DA22080EDF6E20EE02F03B50D9263C5024
:10175000DA22200EDE6E040EDD6E3BC0D9FF3CC0E7
:10176000DAFF040EDF6E3BC0D9FF3CC0DAFF000E8B
:10177000DB8E000E466E000E456E446602D0E0EC35
:101780000DF0120004012039E832030B0009D8A43F
:1017900070D04ED000017C8F080E0001786F69D0A8
:1017A00016EC08F066D0D1EC0AF063D0000E000110
:1017B0007A6F4C0E0001796F15D016EC0DF059D0F0
:1017C00064EC04F056D004012451010D4D0E1F6E3F
:1017D000000E206EF3501F26F45020221FC079F017
:1017E00020C07AF000017C81010E00017D6F0001B4
:1017F0007C8F3FD000017C8F04012451010D4D0EE0
:10180000F324D96E000EF420DA6E040122C4DFFF47
:1018100030D0000E106E020E0F6E000E126E000E13
:10182000116E000E146E000E136EBEEC0FF021D080
:1018300004012151000AD8B4C0D7010AD8B4C0D7D6
:10184000020AD8B4BDD7060AD8B4A4D7030AD8B4BC
:10185000A7D7010AD8B4DDD70F0AD8B4A7D7010A91
:10186000D8B4A1D7030AD8B4AED7010AD8B4C2D726
:10187000070A1200080E016E080E00017D5D000EC1
:1018800000017E59D8B00BD07DC001F04B6602D06C
:10189000010E04D04B04D8A402D0020E4B6E0150AE
:1018A00000017D5F000E00017E5B000120EE01F073
:1018B00000016851D92600016951DA2201C0DFFF19
:1018C0000401040E3E6E0401280E3D6E00017CA151
:1018D0001ED03DD0000179C0F6FF00017AC0F7FFAD
:1018E000F86A3DC0D9FF3EC0DAFF070EF76403D0A7
:1018F0000800F55005D0F6CFE9FFF7CFEAFFEF502B
:10190000DF6E0001794B7A2B3D4A3E2A01060166C3
:10191000E1D71FD0000179C0F6FF00017AC0F7FFC0
:10192000F86A3DC0D9FF3EC0DAFF070EF76403D066
:101930000800F55005D0F6CFE9FFF7CFEAFFEF50EA
:10194000DF6E0001794B7A2B3D4A3E2A0106016683
:10195000E1D712002D0E476E4EC021F0FD0E21166C
:10196000D8A45AD04EC021F0D89021323F0E211673
:101970002150040D0401000EF324396E0401040EFD
:10198000F4203A6E3AC03CF039C03BF0040E3B1AEA
:1019900039C0D9FF3AC0DAFFDF30E8320F0B0D0A49
:1019A000D8A437D0000E236E24D020EE02F0395098
:1019B000D9263A50DA22DECF21F0DDCF22F021C045
:1019C000D9FF22C0DAFF2350010D0401200EF324B9
:1019D000E16E0401040EF420E26EDFCFE7FF20EE9B
:1019E00002F03950D9263A50DA22DE2A000EDD22E2
:1019F000232A070E2364D9D720EE02F03950D926C6
:101A00003A50DA22200EDE6E040EDD6E35EC0FF059
:101A10000CD05BEC10F009D04EC021F0FD0E211669
:101A20002150040AD8B442EC0EF01200000E04015A
:101A3000286F000E0401296F41D000017C8F040142
:101A400028814004D8A446D00401288343D0000153
:101A50007C8F40D000017C8F040124BF0DD0040195
:101A600024510F0B016E0150020D00016C0EF32486
:101A7000D96E0001000E0CD0040124510F0B016E31
:101A80000150020D0001680EF324D96E0001000E12
:101A9000F420DA6EDECF02F0DDCF03F002C0D9FF12
:101AA00003C0DAFFDFAE16D002C0D9FF03C0DAFFF1
:101AB000DFA410D0010E0401286F0CD004012051C6
:101AC0001F0B000AD8B4B9D7010AD8B4C0D7030A8B
:101AD000D8B4C0D700017CAF0DD00401040E0001C2
:101AE0007A6F0401280E0001796F00017C81020EDB
:101AF00000017D6F1200056E0150D8B409D0055069
:101B0000020D0001680EF324D96E0001000E08D00A
:101B10000550020D00016C0EF324D96E0001000E79
:101B2000F420DA6EDECF06F0DDCF07F007500610A6
:101B3000D8A405D0000E026E000E016E40D020EE3B
:101B400002F00650D9260750DA2202C0DEFF03C099
:101B5000DDFF20EE01F00650D9260750DA2204C03E
:101B6000DFFF06C0D9FF07C0DAFF400EDF1606C050
:101B7000D9FF07C0DAFF000EDB8606C0D9FF07C019
:101B8000DAFF000EDB8E0150D8B409D00550020DEB
:101B90000001680EF324D96E0001000E08D0055034
:101BA000020D00016C0EF324D96E0001000EF4202A
:101BB000DA6E040EDF1A07C002F006C001F0120050
:101BC00045665FD0010E456E46665BD0010E466EDF
:101BD0004950020AD8A418D0000120EE01F00001FB
:101BE0006851D92600016951DA22000EDF6E68C003
:101BF000D9FF69C0DAFF480EDF6E68C0D9FF69C03F
:101C0000DAFF000EDB8E3DD04904D8A43AD0000E96
:101C10003F6E20EE01F03950D9263A50DA22080EF4
:101C2000DF6E20EE02F03950D9263A50DA22200E2B
:101C3000DE6E040EDD6E39C0D9FF3AC0DAFF040E45
:101C4000DF6E39C0D9FF3AC0DAFF000EDB8E010E1D
:101C50003F6E20EE01F03B50D9263C50DA22080EB0
:101C6000DF6E20EE02F03B50D9263C50DA22200EE7
:101C7000DE6E040EDD6E3BC0D9FF3CC0DAFF800E85
:101C8000DF6E120068C0D9FF69C0DAFF000EDFBC4A
:101C9000010E026E040E0001681B00017851080A53
:101CA000D8A40CD0040122517F0B6E6E6E50D8B4B4
:101CB00002D0100E01D0040E0001786F4904D8A4A0
:101CC0002ED0000120EE02F000016851D92600015B
:101CD0006951DA22280EDE6E040EDD6E3AEC0CF04D
:101CE0004B50020AD8A406D068C0D9FF69C0DAFFF9
:101CF000040E0DD0026606D068C0D9FF69C0DAFFB5
:101D0000480E05D068C0D9FF69C0DAFF080EDF6E43
:101D100068C0D9FF69C0DAFF000EDB8E07D0000172
:101D200063AF02D00001639F000E496E1200000EE7
:101D3000426E000E436E4950020AD8A41DD020EE18
:101D400001F03B50D9263C50DA22080EDF6E20EE1F
:101D500002F03B50D9263C50DA22280EDE6E040EEB
:101D6000DD6E3BC0D9FF3CC0DAFF480EDF6E3BC0E2
:101D7000D9FF3CC0DAFF27D000017D510401265D68
:101D800000017E5104012759D8B004D026C47DF04B
:101D900027C47EF03AEC0CF0000120EE02F00001C6
:101DA0006851D92600016951DA22280EDE6E040E30
:101DB000DD6E68C0D9FF69C0DAFF480EDF6E68C00B
:101DC000D9FF69C0DAFF000EDB8E1200066E040137
:101DD000040E086E0401000E076E0150026E036AC5
:101DE000D890023603360650046E056AD890043641
:101DF0000536D890043605360250042603500522D5
:101E0000D89004360536D890043605360450072697
:101E10000550082207C0D9FF08C0DAFFDF9E01661F
:101E200009D00650020D00016C0EF324D96E00019A
:101E3000000E08D00650020D0001680EF324D96E82
:101E40000001000EF420DA6E07C0DEFF08C0DDFFDF
:101E500007C0D9FF08C0DAFFDF9C20EE04F007506E
:101E6000D9260850DA22DF8C1200000E4B6E000ECD
:101E7000446E000E426E000E436E000E3F6E000E6A
:101E8000496E68C0D9FF69C0DAFF7F0EDF16040E05
:101E90000001681B68C0D9FF69C0DAFF7F0EDF163A
:101EA000040E0001681B3BC0D9FF3CC0DAFF7F0E67
:101EB000DF16000E00017C6F000E00017E6F000E29
:101EC00000017D6F000E0001636F000E0001656F61
:101ED000000E0001646FC2EC0BF0000E106E030EDA
:101EE0000F6E000E126E000E116E000E146E000EBC
:101EF000136EBEEC0FF04AEC0BF012006DA235D061
:101F0000010E75EC11F039D037043810D8A404D084
:101F1000010E5AEC11F02FD037504B0A3810D8A4CC
:101F200004D0010E75EC11F026D0970E375C000E30
:101F300014D037043810D8A404D0010E5AEC11F094
:101F40001AD03750320A3810D8A404D0010E75ECDC
:101F500011F011D0B70E375C030E3858D8A00BD053
:101F6000000E386E000E376E06D000017851200A40
:101F7000D8B4CAD7DED7374A382A12000FD07EEC41
:101F80000FF034D07EEC0FF031D07EEC0FF02ED07D
:101F900005EC11F02BD0D5EC09F028D00FC015F0CE
:101FA00010C016F01650000AD8B404D07F0AD8B476
:101FB0001BD01CD01550010AD8B4EAD7030AD8B4F4
:101FC00015D0010AD8B4E7D7060AD8B40FD0770ADB
:101FD000D8B40CD0010AD8B4D2D7070AD8B4D5D710
:101FE000010AD8B4CFD702D01550FF0A120006005C
:101FF000EACF28F0E1CF29F0E2CF2AF0D9CF2BF0B9
:10200000DACF2CF0F3CF2DF0F4CF2EF0F6CF2FF067
:10201000F7CF30F0F8CF31F0F5CF32F0B5EC08F073
:1020200032C0F5FF31C0F8FF30C0F7FF2FC0F6FF18
:102030002EC0F4FF2DC0F3FF2CC0DAFF2BC0D9FF58
:102040002AC0E2FF29C0E1FF28C0EAFF27C0E9FF5C
:1020500026C0FBFF25C0FAFF11000001846F05D0E8
:1020600000017F690001806925D000018451000AC8
:10207000D8A4F6D784C081F0000181478147C250BF
:1020800000018119C30B8119C26EC282C2B2FED790
:102090000001C4CF82F00001836B00018251000176
:1020A000836F0001826BC3500001821382C07FF0F6
:1020B00083C080F012004950020AD8A403D04EEC2D
:1020C00009F025D0000E496E3F661FD020EE01F0CA
:1020D0003B50D9263C50DA22080EDF6E20EE02F08B
:1020E0003B50D9263C50DA22200EDE6E040EDD6E07
:1020F0003BC0D9FF3CC0DAFF0C0EDF6E3BC0D9FFFE
:102100003CC0DAFF000EDB8E02D0000E3F6E1200E4
:102110000E6E09A405D0000E016E0E50E6EC0EF016
:1021200009A205D0010E016E0E50E6EC0EF00E5025
:10213000010D700E0A6E0F0E0B6EF3500A26F4504E
:102140000B220AC00CF00BC00DF00CC0D9FF0DC063
:10215000DAFF09C0DFFF120070A01BD0800E39C06B
:10216000D9FF3AC0DAFFDF6213D0840E68C0D9FF0E
:1021700069C0DAFFDF620CD039C0D9FF3AC0DAFF9C
:102180000C0EDF6E39C0D9FF3AC0DAFF000EDB8ECD
:102190007090689A120000017F6F08D0959017D058
:1021A000959215D0959413D0959611D000017F513A
:1021B000000AD8B40CD0010AD8B4F0D7030AD8B4B6
:1021C000EFD7010AD8B4EED7070AD8B4EDD712007A
:1021D00000017F6F08D08C7017D08C7215D08C7472
:1021E00013D08C7611D000017F51000AD8B40CD0E6
:1021F000010AD8B4F0D7030AD8B4EFD7010AD8B48B
:10220000EED7070AD8B4EDD71200000E0001716FA7
:10221000000E0001706F1E0E096E010E88EC10F0AA
:10222000000E016E0501050E036E0501000E026E23
:10223000400E046E010E7BEC0DF001C072F002C086
:1022400073F01200000180C086F000017FC085F0AD
:102250000AD085C0D9FF86C0DAFF000181C0DFFF48
:102260000001854B862B00018307D8A0840700015D
:102270008329D8B48429D8B41200EBD70001806F29
:1022800010D0010ECBEC10F0020ECBEC10F0010ED2
:1022900005EC12F0000E39EC12F0000E55EC12F0C5
:1022A00008D000018051000AD8B4EBD7010AD8A4A5
:1022B000030A1200016E08D08C8016D08C8214D0D4
:1022C0008C8412D08C8610D00150000AD8B40CD067
:1022D000010AD8B4F1D7030AD8B4F0D7010AD8B4A8
:1022E000EFD7070AD8B4EED71200016E08D08C9051
:1022F00016D08C9214D08C9412D08C9610D00150A1
:10230000000AD8B40CD0010AD8B4F1D7030AD8B463
:10231000F0D7010AD8B4EFD7070AD8B4EED7120025
:102320000001786715D0000E6D6E000E696E160EF6
:102330006F6E9F0E6B6E7B0E696ED08EA28AA08A26
:10234000F28E01D06D866DA6FDD7010E0001786F6B
:102350001200000E416E000E106E740E0F6E000E15
:10236000126E000E116E000E146E000E136EBEEC97
:102370000FF06D92699401D0689468B4FDD7000E97
:10238000486E120000017F6F07D081B810D0010E97
:102390000FD081BA0CD0FBD700017F51000AD8B40E
:1023A00006D0010AD8B4F1D7030AD8B4F2D7000E88
:1023B0001200698468986D82010E416E000E486EAD
:1023C000000E106E750E0F6E000E126E000E116E66
:1023D000000E146E000E136EBEEC0FF0120002C061
:1023E00008F001C007F008D007C0D9FF08C0DAFF25
:1023F00003C0DFFF074A082A0506D8A006060528FD
:10240000D8B40628D8B41200EFD700017F6F04D0EB
:1024100093880DD0938A0BD000017F51000AD8B465
:1024200006D0010AD8B4F4D7030AD8B4F3D71200FF
:1024300000EE60F01F0EEE6AE806FDE100EE33F0FC
:102440001E0EEE6AE806FDE1000EF86E000129EFAF
:1024500012F0000E3EEC11F0A3EC06F090EC11F03F
:10246000200E0001785DD8B06DB2FAD7C1EC05F04E
:10247000F7D700017F6F00017F6709D0010EC26EA0
:10248000C150F00B0E09C16E3C0EC06EC08E120022
:10249000010E3326000E342235223622416604D046
:1024A000482A486601D04868120000017F6F02D0B8
:1024B000928005D000017F51000AD8B4F9D71200EC
:020000040020DA
:08000000FFFFFFFFFFFFFFFF00
:020000040030CA
:0E000000240E3F1EFF8181FF0FC00FE00F4056
:00000001FF
