:040000000CEF00F011
:10000800FACF25F0FBCF26F0E9CF27F044ED10F02A
:0400180027EF12F0CC
:1008000000C30809083D086B0834034D0069006304
:100810000072006F006300680069007000200054DF
:10082000006500630068006E006F006C006F006779
:10083000007900200049006E0063002E002E035353
:100840000069006D0070006C0065002000480049E0
:1008500000440020004400650076006900630065E4
:10086000002000440065006D006F000902290001AE
:100870000100C03209040000020300000009211138
:10088000010001221D000705810340000107050149
:10089000034000010600FF0901A1011901294015CB
:1008A0000026FF007508954081001901294091003C
:1008B000C01201000200000008D8043F000001013E
:1008C000020001040309040004012205D8A411D088
:1008D000040120511F0B0009D8A40BD000017B8F0D
:1008E00004012151030AD8A402D0010E01D0000E48
:1008F000406E0401226743D1040120511F0B020AFC
:10090000D8A43DD1040124510F0B0009D8B437D12C
:10091000040124510F0B176E020E175CD8B02FD1B3
:100920004550200AD8A42BD100017B8F040124BF9D
:100930001FD0040124510F0B176E1750020D000138
:100940006C0EF324D96E0001000EF420DA6EDECFB7
:100950001DF0DDCF1EF0040124510F0B176E175050
:10096000010D0001760EF324D96E0001000E1ED099
:10097000040124510F0B176E1750020D0001680E71
:10098000F324D96E0001000EF420DA6EDECF1DF0E4
:10099000DDCF1EF0040124510F0B176E1750010D0F
:1009A0000001740EF324D96E0001000EF420DA6EFB
:1009B000DF501C6E1CB002D01D9401D01D840401B8
:1009C00024BF0DD0040124510F0B176E1750020DD8
:1009D00000016C0EF324D96E0001000E0CD004014E
:1009E00024510F0B176E1750020D0001680EF324EF
:1009F000D96E0001000EF420DA6E1DC0DEFF1EC0AD
:100A0000DDFF04012151030AD8A433D01DC0D9FF52
:100A10001EC0DAFFDFAE20D0040124BF0DD00401D8
:100A200024510F0B176E1750010D0001760EF324A1
:100A3000D96E0001000E0CD0040124510F0B176E6B
:100A40001750010D0001740EF324D96E0001000E41
:100A5000F420DA6E0001DF821DC0D9FF1EC0DAFF6C
:100A6000000EDB841DC0D9FF1EC0DAFF000EDB8E36
:100A700086D0040E1D1A1DC0D9FF1EC0DAFFDFAEDE
:100A80001BD01DC0D9FF1EC0DAFF7F0EDF161DC0B0
:100A9000D9FF1EC0DAFF000EDB8C000E106E050EB3
:100AA0000F6E1EC012F01DC011F0000E146E020E6B
:100AB000136E0BEC10F006D01DC0D9FF1EC0DAFF7C
:100AC000000EDB8C040E1D1A1CB206D01DC0D9FF0F
:100AD0001EC0DAFFDFAE35D0040124BF0DD0040103
:100AE00024510F0B176E1750010D0001760EF324E1
:100AF000D96E0001000E0CD0040124510F0B176EAB
:100B00001750010D0001740EF324D96E0001000E80
:100B1000F420DA6E0001DF921DC0D9FF1EC0DAFF9B
:100B20003B0EDF16000E106E050E0F6E1EC012F08B
:100B30001DC011F0000E146E020E136E0BEC10F0BF
:100B400006D01DC0D9FF1EC0DAFF3B0EDF16040120
:100B500024510F0B176E1750010D700E186E0F0EEB
:100B6000196EF3501826F450192218C01AF019C043
:100B70001BF01AC0D9FF1BC0DAFFFE0EDF161200F1
:100B8000000173517211D8B413D072C0D9FF73C071
:100B9000DAFFDFAE04D00001856B852B02D00001A7
:100BA000856B000185510001876F0001886B06D0BD
:100BB000000E0001886F000E0001876F0001885150
:100BC0008711D8B4F5D016D1000171517011D8B485
:100BD00013D070C0D9FF71C0DAFFDFAE04D00001BE
:100BE000856B852B02D00001856B000185510001CA
:100BF000896F00018A6B06D0000E00018A6F000E1B
:100C00000001896F00018A518911D8A4DCD0810EBE
:100C10000501406F81AA02D0010E01D0000E05012E
:100C2000416F81AC02D0010E01D0000E0501426F70
:100C3000010E00017E6F0501050E0001806F0501A8
:100C4000400E00017F6F400E0001816F010EA7EC86
:100C50000AF0A7D0000171517011D8B413D070C040
:100C6000D9FF71C0DAFFDFAE04D00001856B852BA0
:100C700002D00001856B0001855100018B6F0001DE
:100C80008C6B06D0000E00018C6F000E00018B6F84
:100C900000018C518B11D8A496D0370E0501406FFE
:100CA000000E00018D6F44D08DC085F00001D890FA
:100CB00085370001D890853700018529C26EC28230
:100CC000C2B2FED700018D510001856F866BD890AE
:100CD000000185378637010E00018527000E862327
:100CE0000501400E00018525D96E0501050E0001A4
:100CF0008621DA6EC3CFDFFF00018D510001856FC1
:100D0000866BD890000185378637020E0001852753
:100D1000000E86230501400E00018525D96E0501D0
:100D2000050E00018621DA6EC4CFDFFF00018D2B96
:100D30000C0E00018D65B8D7000E05015B6F83AE08
:100D400002D005015B8F83AC02D005015B8D83AAC5
:100D500002D005015B8B83A802D005015B8982AEBE
:100D600002D005015B8782AC02D005015B8583A6BA
:100D700002D005015B8383A402D005015B818C72E4
:100D8000010E00017E6F0501050E0001806F050157
:100D9000400E00017F6F400E0001816F010EA7EC35
:100DA0000AF000017EC070F000017FC071F00BD02E
:100DB00005010051370AD8B44DD7B70AD8B403D0CB
:100DC000010AD8B401D7000E00017E6F0501050E9F
:100DD0000001806F0501000E00017F6F400E0001D1
:100DE000816F010EA7EC0AF000017EC072F00001D5
:100DF0007FC073F01200A09A000E6A6E000E686E3B
:100E0000000E706E0F0E00017F6F710E00017E6F7D
:100E1000000E0001816F000E0001806F000E0001C6
:100E2000836F010E0001826F4AEC11F0160E6F6E97
:100E30009F0E6B6E7B0E696E000E0001866F11D0E7
:100E400000018651040D0401000EF324D96E040143
:100E5000040EF420DA6EDE6ADE6ADE6ADD6A000104
:100E6000862B070E00018665EBD76D8C000E6E6E2B
:100E70006D986D9C6896000E00017B6F000E00015E
:100E8000636F000E0001656F000E0001646F68B6AD
:100E9000F1D7010E466E010E476E000E426E000E37
:100EA000436E000E416E000E0001866F3AD00001C5
:100EB0008651020D0001680EF324D96E0001000E68
:100EC000F420DA6E000EDE6E000EDD6E000186513B
:100ED000020D00016C0EF324D96E0001000EF42007
:100EE000DA6E000EDE6E000EDD6E00018651010D21
:100EF0000001740EF324D96E0001000EF420DA6EA6
:100F0000000EDF6E00018651010D0001760EF32404
:100F1000D96E0001000EF420DA6E000EDF6E0001C3
:100F2000862B010E00018665C2D70401040E000164
:100F3000696F0401080E0001686F160E706E040ED2
:100F40000401036F200E0401026F080E0401016FFB
:100F5000040E0401006F0401008F000E4D6E000EA0
:100F6000336E000E346E000E356E000E366E000EBF
:100F7000496E000E456E1200A09A000E6A6E000EB9
:100F8000686E000E706E0F0E026E710E016E000E16
:100F9000046E000E036E000E066E010E056EFEEC72
:100FA00011F0160E6F6E9F0E6B6E7B0E696E000E4B
:100FB000096E0FD00950040D0401000EF324D96E00
:100FC0000401040EF420DA6EDE6ADE6ADE6ADD6A8F
:100FD000092A070E0964EED76D8C000E6E6E6D98AF
:100FE0006D9C6896000E00017B6F000E0001636F20
:100FF000000E0001656F000E0001646F68B6F1D746
:10100000010E466E010E476E000E426E000E436EDC
:10101000000E416E000E096E35D00950020D000120
:10102000680EF324D96E0001000EF420DA6E000E73
:10103000DE6E000EDD6E0950020D00016C0EF32411
:10104000D96E0001000EF420DA6E000EDE6E000E86
:10105000DD6E0950010D0001740EF324D96E0001FC
:10106000000EF420DA6E000EDF6E0950010D000153
:10107000760EF324D96E0001000EF420DA6E000E15
:10108000DF6E092A010E0964C8D70401040E0001AD
:10109000696F0401080E0001686F160E706E040E71
:1010A0000401036F200E0401026F080E0401016F9A
:1010B000040E0401006F0401008F000E4D6E000E3F
:1010C000336E000E346E000E356E000E366E000E5E
:1010D000496E000E456E120004012051800AD8A40A
:1010E00099D0C00E00017B6F89D0080E0001796F86
:1010F000B10E0001786F000E00017D6F120E00012D
:101100007C6F88D00401226775D004012251020D42
:10111000070EF324F66E080EF420F76E09000001A6
:10112000F5CF78F00A000001F5CF79F0020E00014A
:101130007825016E000E00017921026E01C0F6FFD4
:1011400002C0F7FFF86A070EF76403D00800F550F5
:1011500005D0F6CFE9FFF7CFEAFFEF5000017C6F33
:10116000030E00017825016E000E00017921026E48
:1011700001C0F6FF02C0F7FFF86A070EF76403D05C
:101180000800F55005D0F6CFE9FFF7CFEAFFEF50A2
:1011900000017D6F3FD0030E0401225DD8B02AD03C
:1011A00004012251020D010EF324F66E080EF42004
:1011B000F76E09000001F5CF78F00A000001F5CFC5
:1011C00079F0000178C0F6FF000179C0F7FFF86AF6
:1011D000070EF76403D00800F55005D0F6CFE9FFFD
:1011E000F7CFEAFFEF50016E015000017C6F000164
:1011F0007D6B10D0000E00017B6F0CD004012351D9
:10120000010AD8B472D7030AD8B47CD7010AD8B47B
:10121000C2D7F0D712004504D8B46DBA06D0000E7C
:10122000686E69806988020E456E68B469A403D04F
:101230006894B8EC11F06DB281D068B069A006D0A6
:10124000BCEC07F0A08A040E456E689068B869A8E7
:1012500002D0E8EC11F068AC1AD069AC0ED0000EE8
:10126000106E730E0F6E000E126E000E116E000ED9
:10127000146E010E136E0BEC10F0689C47EC12F02C
:101280004850D8A44806486602D030EC0EF068BA40
:1012900069AA02D0F1EC10F068B269A20FD07F0EFB
:1012A000106E0F68000E126E000E116E000E146E9E
:1012B000010E136E0BEC10F0000E6A6E040E455C0E
:1012C000D8B069A63BD0000E246E35D068A636D0C3
:1012D0006CCF4FF04F30E832E8320F0B4B6E689610
:1012E0004FB409D04B50010D0001760EF324D96E96
:1012F0000001000E08D04B50010D0001740EF324C4
:10130000D96E0001000EF420DA6E0001DF704B662A
:1013100003D0FAEC0CF00ED0000E106E720E0F6EB1
:10132000000E126E4F0E116E000E146E000E136E34
:101330000BEC10F0242A030E2464C8D7A19A1200E3
:1013400020EE01F03950D9263A50DA22DF50026EF1
:1013500002500001645D000E00016559D8A064C010
:1013600002F002500001645F000E0001655B000E98
:10137000016E14D00150010D0401280EF324D96E22
:101380000401040EF420DA6E60C0E1FF61C0E2FFE8
:10139000DFCFE7FF0001604B612B012A0250015CA7
:1013A000D8A0E8D7000165516411D8B42BD020EE45
:1013B00001F03B50D9263C50DA22080EDF6E20EEB9
:1013C00002F03B50D9263C50DA22280EDE6E040E85
:1013D000DD6E39C0D9FF3AC0DAFFDFBC06D03BC0B2
:1013E000D9FF3CC0DAFF480E05D03BC0D9FF3CC056
:1013F000DAFF080EDF6E3BC0D9FF3CC0DAFF000EFB
:10140000DB8E24D020EE01F03B50D9263C50DA226E
:10141000080EDF6E20EE02F03B50D9263C50DA2257
:10142000200EDE6E040EDD6E3BC0D9FF3CC0DAFF3D
:10143000040EDF6E3BC0D9FF3CC0DAFF000EDB8E2E
:101440000001639F446602D030EC0EF012000401EC
:1014500020511F0B016E0104D8A478D0040124513F
:10146000D8A474D004012151060AD8B41FD027D0C3
:101470004D04D8A424D0080E0001796F7D0E000120
:10148000786F000E00017D6F090E0AD0080E000172
:10149000796F940E0001786F000E00017D6F1D0EB4
:1014A00000017C6FC00E00017B6F09D00401235145
:1014B000210AD8B4DDD7030AD8B4E8D7010A040159
:1014C0002039E832030B016E0104D8A43FD02AD0A2
:1014D000000E0001796F510E0001786F000E0001BF
:1014E0007D6F010E00017C6FC10E13D0800E0001D4
:1014F0007B6F23C451F02AD0000E0001796F500E8B
:101500000001786F000E00017D6F010E00017C6FFD
:10151000810E00017B6F1AD0800E00017B6F22C408
:1015200050F014D004012151010AD8B40FD0030A9D
:10153000D8B4CED7010AD8B4DFD70A0AD8B406D0B7
:10154000030AD8B4D3D7010AD8B4E6D712000001F1
:10155000826F00017E51D8B40AD000018251020D81
:101560000001680EF324D96E0001000E09D00001BD
:101570008251020D00016C0EF324D96E0001000EA1
:10158000F420DA6E0001DECF83F00001DDCF84F0BD
:10159000000184518311D8A407D0000E00017F6F91
:1015A000000E00017E6F4ED0000120EE02F000011F
:1015B0008351D92600018451DA2200017FC0DEFF69
:1015C000000180C0DDFF000120EE01F00001835129
:1015D000D92600018451DA22000181C0DFFF83C0D7
:1015E000D9FF84C0DAFF400EDF1683C0D9FF84C064
:1015F000DAFF000EDB8683C0D9FF84C0DAFF000E5D
:10160000DB8E00017E51D8B40AD000018251020D58
:101610000001680EF324D96E0001000E09D000010C
:101620008251020D00016C0EF324D96E0001000EF0
:10163000F420DA6E040EDF1A000184C07FF000018E
:1016400083C07EF012006D9800017BBF39D000018D
:1016500063AF0BD0020E4A6E436602D0E5EC0EF08B
:10166000000E476E000E466E65D020EE01F03B5036
:10167000D9263C50DA22080EDF6E20EE02F03B50F5
:10168000D9263C50DA22200EDE6E040EDD6E3BC001
:10169000D9FF3CC0DAFF0C0EDF6E3BC0D9FF3CC067
:1016A000DAFF000EDB8E68C0D9FF69C0DAFF040ED6
:1016B000DF6E68C0D9FF69C0DAFF000EDB8E3AD05A
:1016C000040120AF0FD0010E4A6E426602D0E5EC55
:1016D0000EF0000E476E000E466E44662BD030ECC6
:1016E0000EF028D0020E4A6E20EE01F03B50D926B3
:1016F0003C50DA22080EDF6E20EE02F03B50D92675
:101700003C50DA22200EDE6E040EDD6E3BC0D9FFA7
:101710003CC0DAFF040EDF6E3BC0D9FF3CC0DAFFED
:10172000000EDB8E000E476E000E466E446602D041
:1017300030EC0EF0120000017B8F0F0E026E710E66
:10174000016E000E046E000E036E000E066E010E9A
:10175000056EFEEC11F00401040E026E0401000E91
:10176000016E000E046E000E036E000E066E200E5B
:10177000056EFEEC11F06D8C000E176E19D017502F
:10178000010D0001740EF324D96E0001000EF42047
:10179000DA6E000EDF6E1750010D0001760EF32495
:1017A000D96E0001000EF420DA6E000EDF6E172AEB
:1017B000010E1764E4D7000E026E4E0E016E000E8D
:1017C000046E000E036E000E066E010E056EFEEC3A
:1017D00011F06D9C0401040E0001696F0401080EF4
:1017E0000001686F0401040E3A6E0401000E396EA8
:1017F0003AC03CF039C03BF022C44DF04D6602D0F7
:10180000100E0FD0000E106E010E0F6E000E126E35
:101810004D0E116E000E146E010E136E0BEC10F0D7
:10182000200E456E120004012039E832030B000936
:10183000D8A46FD04DD000017B8F080E456E69D0C3
:101840006CEC08F066D09BEC0BF063D0000E00014E
:10185000796F4D0E0001786F15D066EC0DF059D000
:1018600064EC04F056D004012451010D4E0E1F6E9D
:10187000000E206EF3501F26F45020221FC078F077
:1018800020C079F000017B81010E00017C6F000116
:101890007B8F3FD000017B8F04012451010D4E0E40
:1018A000F324D96E000EF420DA6E040122C4DFFFA7
:1018B00030D0000E106E020E0F6E000E126E000E73
:1018C000116E000E146E000E136E0BEC10F021D092
:1018D00004012151000AD8B4C0D7010AD8B4C0D736
:1018E000020AD8B4BDD7060AD8B4A5D7030AD8B41B
:1018F000A7D7010AD8B4DDD70F0AD8B4A7D7010AF1
:10190000D8B4A1D7030AD8B4AED7010AD8B4C2D785
:10191000070A1200080E016E080E00017C5D000E21
:1019200000017D59D8B00BD07CC001F04C6602D0CC
:10193000010E04D04C04D8A402D0020E4C6E01500B
:1019400000017C5F000E00017D5B000120EE01F0D4
:1019500000016851D92600016951DA2201C0DFFF78
:101960000401040E3E6E0401280E3D6E00017BA1B1
:101970001ED03DD0000178C0F6FF000179C0F7FF0E
:10198000F86A3DC0D9FF3EC0DAFF070EF76403D006
:101990000800F55005D0F6CFE9FFF7CFEAFFEF508A
:1019A000DF6E0001784B792B3D4A3E2A0106016625
:1019B000E1D71FD0000178C0F6FF000179C0F7FF22
:1019C000F86A3DC0D9FF3EC0DAFF070EF76403D0C6
:1019D0000800F55005D0F6CFE9FFF7CFEAFFEF504A
:1019E000DF6E0001784B792B3D4A3E2A01060166E5
:1019F000E1D712002D0E486E4FC021F0FD0E2116CA
:101A0000D8A45AD04FC021F0D89021323F0E2116D1
:101A10002150040D0401000EF324396E0401040E5C
:101A2000F4203A6E3AC03CF039C03BF0040E3B1A49
:101A300039C0D9FF3AC0DAFFDF30E8320F0B0D0AA8
:101A4000D8A437D0000E236E24D020EE02F03950F7
:101A5000D9263A50DA22DECF21F0DDCF22F021C0A4
:101A6000D9FF22C0DAFF2350010D0401200EF32418
:101A7000E16E0401040EF420E26EDFCFE7FF20EEFA
:101A800002F03950D9263A50DA22DE2A000EDD2241
:101A9000232A070E2364D9D720EE02F03950D92625
:101AA0003A50DA22200EDE6E040EDD6E83EC0FF06B
:101AB0000CD07AEC10F009D04FC021F0FD0E2116A9
:101AC0002150040AD8B492EC0EF01200000E04016A
:101AD000286F000E0401296F41D000017B8F0401A3
:101AE00028814004D8A446D00401288343D00001B3
:101AF0007B8F40D000017B8F040124BF0DD00401F7
:101B000024510F0B016E0150020D00016C0EF324E5
:101B1000D96E0001000E0CD0040124510F0B016E90
:101B20000150020D0001680EF324D96E0001000E71
:101B3000F420DA6EDECF02F0DDCF03F002C0D9FF71
:101B400003C0DAFFDFAE16D002C0D9FF03C0DAFF50
:101B5000DFA410D0010E0401286F0CD00401205125
:101B60001F0B000AD8B4B9D7010AD8B4C0D7030AEA
:101B7000D8B4C0D700017BAF0DD00401040E000122
:101B8000796F0401280E0001786F00017B81020E3D
:101B900000017C6F1200056E0150D8B409D00550C9
:101BA000020D0001680EF324D96E0001000E08D06A
:101BB0000550020D00016C0EF324D96E0001000ED9
:101BC000F420DA6EDECF06F0DDCF07F00750061006
:101BD000D8A405D0000E026E000E016E40D020EE9B
:101BE00002F00650D9260750DA2202C0DEFF03C0F9
:101BF000DDFF20EE01F00650D9260750DA2204C09E
:101C0000DFFF06C0D9FF07C0DAFF400EDF1606C0AF
:101C1000D9FF07C0DAFF000EDB8606C0D9FF07C078
:101C2000DAFF000EDB8E0150D8B409D00550020D4A
:101C30000001680EF324D96E0001000E08D0055093
:101C4000020D00016C0EF324D96E0001000EF42089
:101C5000DA6E040EDF1A07C002F006C001F01200AF
:101C600046665FD0010E466E47665BD0010E476E3A
:101C70004A50020AD8A418D0000120EE01F0000159
:101C80006851D92600016951DA22000EDF6E68C062
:101C9000D9FF69C0DAFF480EDF6E68C0D9FF69C09E
:101CA000DAFF000EDB8E3DD04A04D8A43AD0000EF5
:101CB0003F6E20EE01F03950D9263A50DA22080E54
:101CC000DF6E20EE02F03950D9263A50DA22200E8B
:101CD000DE6E040EDD6E39C0D9FF3AC0DAFF040EA5
:101CE000DF6E39C0D9FF3AC0DAFF000EDB8E010E7D
:101CF0003F6E20EE01F03B50D9263C50DA22080E10
:101D0000DF6E20EE02F03B50D9263C50DA22200E46
:101D1000DE6E040EDD6E3BC0D9FF3CC0DAFF800EE4
:101D2000DF6E120068C0D9FF69C0DAFF000EDFBCA9
:101D3000010E026E040E0001681B4550080AD8A46B
:101D40000BD0040122517F0B6E6E6E50D8B402D0BE
:101D5000100E01D0040E456E4A04D8A42ED0000106
:101D600020EE02F000016851D92600016951DA2203
:101D7000280EDE6E040EDD6E8AEC0CF04C50020A6A
:101D8000D8A406D068C0D9FF69C0DAFF040E0DD010
:101D9000026606D068C0D9FF69C0DAFF480E05D0D8
:101DA00068C0D9FF69C0DAFF080EDF6E68C0D9FFCE
:101DB00069C0DAFF000EDB8E07D0000163AF02D0EE
:101DC0000001639F000E4A6E1200000E426E000E6C
:101DD000436E4A50020AD8A41DD020EE01F03B50B9
:101DE000D9263C50DA22080EDF6E20EE02F03B507E
:101DF000D9263C50DA22280EDE6E040EDD6E3BC082
:101E0000D9FF3CC0DAFF480EDF6E3BC0D9FF3CC0B3
:101E1000DAFF27D000017C510401265D00017D51CD
:101E200004012759D8B004D026C47CF027C47DF023
:101E30008AEC0CF0000120EE02F000016851D92676
:101E400000016951DA22280EDE6E040EDD6E68C0D4
:101E5000D9FF69C0DAFF480EDF6E68C0D9FF69C0DC
:101E6000DAFF000EDB8E1200066E0401040E086E0F
:101E70000401000E076E0150026E036AD89002360C
:101E800003360650046E056AD89004360536D8909D
:101E9000043605360250042603500522D890043635
:101EA0000536D8900436053604500726055008221A
:101EB00007C0D9FF08C0DAFFDF9E016609D00650CF
:101EC000020D00016C0EF324D96E0001000E08D043
:101ED0000650020D0001680EF324D96E0001000EB9
:101EE000F420DA6E07C0DEFF08C0DDFF07C0D9FFAF
:101EF00008C0DAFFDF9C20EE04F00750D926085016
:101F0000DA22DF8C1200000E4C6E000E446E000EC2
:101F1000426E000E436E000E3F6E000E4A6E68C0A9
:101F2000D9FF69C0DAFF7F0EDF16040E0001681BBF
:101F300068C0D9FF69C0DAFF7F0EDF16040E00010A
:101F4000681B3BC0D9FF3CC0DAFF7F0EDF16000ED6
:101F500000017B6F000E00017D6F000E00017C6FA1
:101F6000000E0001636F000E0001656F000E00019E
:101F7000646F13EC0CF0000E106E030E0F6E000E6B
:101F8000126E000E116E000E146E000E136E0BEC2E
:101F900010F023EC0BF012006DA235D0010E9DEC79
:101FA00011F038D037043810D8A404D0010E82ECD8
:101FB00011F02ED037504B0A3810D8A404D0010E9F
:101FC0009DEC11F025D0970E375C000E14D037042D
:101FD0003810D8A404D0010E82EC11F019D037507B
:101FE000320A3810D8A404D0010E9DEC11F010D0A4
:101FF000B70E375C030E3858D8A00AD0000E386EE2
:10200000000E376E05D04550200AD8B4CBD7DFD7A5
:10201000374A382A12000FD0CCEC0FF034D0CCEC79
:102020000FF031D0CCEC0FF02ED02DEC11F02BD0E6
:1020300027EC0AF028D00FC015F010C016F016508B
:10204000000AD8B404D07F0AD8B41BD01CD01550D5
:10205000010AD8B4EAD7030AD8B415D0010AD8B413
:10206000E7D7060AD8B40FD0770AD8B40CD0010A43
:10207000D8B4D2D7070AD8B4D5D7010AD8B4CFD7A5
:1020800002D01550FF0A12000600EACF28F0E1CF77
:1020900029F0E2CF2AF0D9CF2BF0DACF2CF0F3CF12
:1020A0002DF0F4CF2EF0F6CF2FF0F7CF30F0F8CFA1
:1020B00031F0F5CF32F00BEC09F032C0F5FF31C052
:1020C000F8FF30C0F7FF2FC0F6FF2EC0F4FF2DC081
:1020D000F3FF2CC0DAFF2BC0D9FF2AC0E2FF29C0D2
:1020E000E1FF28C0EAFF27C0E9FF26C0FBFF25C0AB
:1020F000FAFF11004A50020AD8A403D0A0EC09F05C
:1021000025D0000E4A6E3F661FD020EE01F03B50F6
:10211000D9263C50DA22080EDF6E20EE02F03B504A
:10212000D9263C50DA22200EDE6E040EDD6E3BC056
:10213000D9FF3CC0DAFF0C0EDF6E3BC0D9FF3CC0BC
:10214000DAFF000EDB8E02D0000E3F6E1200000E92
:1021500066EC11F0FBEC06F0D1EC11F09590959245
:10216000958495869588958A958C958E948C948E79
:10217000938A938CC196C194C192C1909280010EB2
:10218000C26E3C0EC06EC08E8C80200E455CD8B0F6
:102190006DB2FBD7C0EC05F0F8D70E6E09A405D0E0
:1021A000000E016E0E5034EC0FF009A205D0010EA6
:1021B000016E0E5034EC0FF00E50010D700E0A6ED1
:1021C0000F0E0B6EF3500A26F4500B220AC00CF0CF
:1021D0000BC00DF00CC0D9FF0DC0DAFF09C0DFFF46
:1021E000120070A01BD0800E39C0D9FF3AC0DAFFB0
:1021F000DF6213D0840E68C0D9FF69C0DAFFDF62E6
:102200000CD039C0D9FF3AC0DAFF0C0EDF6E39C0EE
:10221000D9FF3AC0DAFF000EDB8E7090689A120088
:1022200000017E6F08D0959017D0959215D09594A7
:1022300013D0959611D000017E51000AD8B40CD06D
:10224000010AD8B4F0D7030AD8B4EFD7010AD8B43A
:10225000EED7070AD8B4EDD71200000E0001716F57
:10226000000E0001706F1E0E096E010ECDEC10F015
:10227000000E016E0501050E036E0501000E026ED3
:10228000400E046E010ECBEC0DF001C072F002C0E6
:1022900073F0120000017FC085F000017EC084F061
:1022A0000AD084C0D9FF85C0DAFF000180C0DFFFFB
:1022B0000001844B852B00018207D8A08307000111
:1022C0008229D8B48329D8B41200EBD700017F6FDC
:1022D00010D0010E10EC11F0020E10EC11F0010EF6
:1022E00014EC12F0000E38EC12F0000E54EC12F068
:1022F00008D000017F51000AD8B4EBD7010AD8A456
:10230000030A1200016E08D08C8016D08C8214D083
:102310008C8412D08C8610D00150000AD8B40CD016
:10232000010AD8B4F1D7030AD8B4F0D7010AD8B457
:10233000EFD7070AD8B4EED71200016E08D08C9000
:1023400016D08C9214D08C9412D08C9610D0015050
:10235000000AD8B40CD0010AD8B4F1D7030AD8B413
:10236000F0D7010AD8B4EFD7070AD8B4EED71200D5
:10237000000E416E000E106E740E0F6E000E126E87
:10238000000E116E000E146E000E136E0BEC10F0AA
:102390006D92699401D0689468B4FDD7000E496EBF
:1023A0001200456614D0000E6D6E000E696E160E9A
:1023B0006F6E9F0E6B6E7B0E696ED08EA28AA08AA6
:1023C000F28E01D06D866DA6FDD7010E456E12000E
:1023D000698468986D82010E416E000E496E000E90
:1023E000106E750E0F6E000E126E000E116E000E46
:1023F000146E000E136E0BEC10F0120002C008F009
:1024000001C007F008D007C0D9FF08C0DAFF03C039
:10241000DFFF074A082A0506D8A006060528D8B413
:102420000628D8B41200EFD700017E6F04D093883D
:102430000DD0938A0BD000017E51000AD8B406D08B
:10244000010AD8B4F4D7030AD8B4F3D7120000EEC7
:1024500060F01E0EEE6AE806FDE100EE33F01F0E9E
:10246000EE6AE806FDE1000EF86E0001A7EF10F03D
:1024700000017E6F00017E6709D0010EC26EC1505F
:10248000F00B0E09C16E3C0EC06EC08E1200010E24
:102490003326000E342235223622416604D0492AE2
:1024A000496601D04968120000017E6F02D0928017
:0E24B00005D000017E51000AD8B4F9D7120001
:020000040020DA
:08000000FFFFFFFFFFFFFFFF00
:020000040030CA
:0E000000200E3F1EFF8181FF0FC00FE00F405A
:00000001FF
